{
  "_format": "hh-sol-artifact-1",
  "contractName": "FundRaiser",
  "sourceName": "contracts/FundRaiser.sol",
  "abi": [
    {
      "inputs": [],
      "stateMutability": "nonpayable",
      "type": "constructor"
    },
    {
      "inputs": [
        {
          "internalType": "string",
          "name": "name",
          "type": "string"
        },
        {
          "internalType": "string",
          "name": "message",
          "type": "string"
        }
      ],
      "name": "donate",
      "outputs": [],
      "stateMutability": "payable",
      "type": "function"
    },
    {
      "inputs": [],
      "name": "getMemos",
      "outputs": [
        {
          "components": [
            {
              "internalType": "string",
              "name": "name",
              "type": "string"
            },
            {
              "internalType": "string",
              "name": "message",
              "type": "string"
            },
            {
              "internalType": "uint256",
              "name": "timestamp",
              "type": "uint256"
            },
            {
              "internalType": "address",
              "name": "from",
              "type": "address"
            }
          ],
          "internalType": "struct FundRaiser.Memo[]",
          "name": "",
          "type": "tuple[]"
        }
      ],
      "stateMutability": "view",
      "type": "function"
    }
  ],
  "bytecode": "0x608060405234801561001057600080fd5b50336000806101000a81548173ffffffffffffffffffffffffffffffffffffffff021916908373ffffffffffffffffffffffffffffffffffffffff1602179055506109ae806100606000396000f3fe6080604052600436106100295760003560e01c80631653441c1461002e578063865c51721461004a575b600080fd5b610048600480360381019061004391906105f2565b610075565b005b34801561005657600080fd5b5061005f610212565b60405161006c9190610878565b60405180910390f35b600034116100b8576040517f08c379a00000000000000000000000000000000000000000000000000000000081526004016100af906108f7565b60405180910390fd5b60008054906101000a900473ffffffffffffffffffffffffffffffffffffffff1673ffffffffffffffffffffffffffffffffffffffff166108fc349081150290604051600060405180830381858888f1935050505015801561011e573d6000803e3d6000fd5b50600160405180608001604052808481526020018381526020014281526020013373ffffffffffffffffffffffffffffffffffffffff168152509080600181540180825580915050600190039060005260206000209060040201600090919091909150600082015181600001908051906020019061019d9291906103f5565b5060208201518160010190805190602001906101ba9291906103f5565b506040820151816002015560608201518160030160006101000a81548173ffffffffffffffffffffffffffffffffffffffff021916908373ffffffffffffffffffffffffffffffffffffffff16021790555050505050565b60606001805480602002602001604051908101604052809291908181526020016000905b828210156103ec578382906000526020600020906004020160405180608001604052908160008201805461026990610946565b80601f016020809104026020016040519081016040528092919081815260200182805461029590610946565b80156102e25780601f106102b7576101008083540402835291602001916102e2565b820191906000526020600020905b8154815290600101906020018083116102c557829003601f168201915b505050505081526020016001820180546102fb90610946565b80601f016020809104026020016040519081016040528092919081815260200182805461032790610946565b80156103745780601f1061034957610100808354040283529160200191610374565b820191906000526020600020905b81548152906001019060200180831161035757829003601f168201915b50505050508152602001600282015481526020016003820160009054906101000a900473ffffffffffffffffffffffffffffffffffffffff1673ffffffffffffffffffffffffffffffffffffffff1673ffffffffffffffffffffffffffffffffffffffff168152505081526020019060010190610236565b50505050905090565b82805461040190610946565b90600052602060002090601f016020900481019282610423576000855561046a565b82601f1061043c57805160ff191683800117855561046a565b8280016001018555821561046a579182015b8281111561046957825182559160200191906001019061044e565b5b509050610477919061047b565b5090565b5b8082111561049457600081600090555060010161047c565b5090565b6000604051905090565b600080fd5b600080fd5b600080fd5b600080fd5b6000601f19601f8301169050919050565b7f4e487b7100000000000000000000000000000000000000000000000000000000600052604160045260246000fd5b6104ff826104b6565b810181811067ffffffffffffffff8211171561051e5761051d6104c7565b5b80604052505050565b6000610531610498565b905061053d82826104f6565b919050565b600067ffffffffffffffff82111561055d5761055c6104c7565b5b610566826104b6565b9050602081019050919050565b82818337600083830152505050565b600061059561059084610542565b610527565b9050828152602081018484840111156105b1576105b06104b1565b5b6105bc848285610573565b509392505050565b600082601f8301126105d9576105d86104ac565b5b81356105e9848260208601610582565b91505092915050565b60008060408385031215610609576106086104a2565b5b600083013567ffffffffffffffff811115610627576106266104a7565b5b610633858286016105c4565b925050602083013567ffffffffffffffff811115610654576106536104a7565b5b610660858286016105c4565b9150509250929050565b600081519050919050565b600082825260208201905092915050565b6000819050602082019050919050565b600081519050919050565b600082825260208201905092915050565b60005b838110156106d05780820151818401526020810190506106b5565b838111156106df576000848401525b50505050565b60006106f082610696565b6106fa81856106a1565b935061070a8185602086016106b2565b610713816104b6565b840191505092915050565b6000819050919050565b6107318161071e565b82525050565b600073ffffffffffffffffffffffffffffffffffffffff82169050919050565b600061076282610737565b9050919050565b61077281610757565b82525050565b6000608083016000830151848203600086015261079582826106e5565b915050602083015184820360208601526107af82826106e5565b91505060408301516107c46040860182610728565b5060608301516107d76060860182610769565b508091505092915050565b60006107ee8383610778565b905092915050565b6000602082019050919050565b600061080e8261066a565b6108188185610675565b93508360208202850161082a85610686565b8060005b85811015610866578484038952815161084785826107e2565b9450610852836107f6565b925060208a0199505060018101905061082e565b50829750879550505050505092915050565b600060208201905081810360008301526108928184610803565b905092915050565b600082825260208201905092915050565b7f506c65617365207061792067726561746572207468616e203020657468657200600082015250565b60006108e1601f8361089a565b91506108ec826108ab565b602082019050919050565b60006020820190508181036000830152610910816108d4565b9050919050565b7f4e487b7100000000000000000000000000000000000000000000000000000000600052602260045260246000fd5b6000600282049050600182168061095e57607f821691505b6020821081141561097257610971610917565b5b5091905056fea26469706673582212208c90b049593747463fb2023f5c84b1743762b61c115db053ee9bb09d2238e37964736f6c63430008090033",
  "linkReferences": {},
  "deployedLinkReferences": {}
}